S3150000000018012020D5000000D9000000DB00000008
S3150000001000000000000000000000000000000000DA
S31500000020000000000000000000000000DD000000ED
S315000000300000000000000000DF000000E1000000FA
S31500000040E3000000E3000000F9080000E300000000
S31500000050E3000000E3000000E3000000E30000000E
S3150000006000000000E3000000E300000000000000C4
S3150000007000000000E3000000E3000000E3000000D1
S31500000080E3000000E3000000A1080000E300000018
S31500000090E3000000E3000000000000000000000094
S315000000A0E3000000E3000000000000000000000084
S315000000B0E300000000000000E3000000E300000091
S315000000C00348854600F010F800480047D5090000AF
S315000000D01801202003480047FEE7FEE7FEE7FEE79B
S315000000E0FEE7FEE7C10000001CB50948009009487C
S315000000F0019005460126009C05E0E36807CC3343E2
S315000001000C3C98471034AC42F7D3FFF7DDFF0000F4
S315000001105C0A00007C0A000070B50446002903D082
S3150000012000202022012310E0002801D00020C04337
S31500000130C046C0460DE02546D5408D4205D30D4646
S315000001409540641B1D46954040191546521E002DCC
S31500000150F1DC214670BD811E091F00BFFCD270472D
S3150000016084B0039002910192039800680090009871
S3150000017001998843009000980299019A114008431A
S315000001800399086004B0704782B0064801900120C8
S31500000190400300900098019995225201885002B0C0
S315000001A07047C04600200A4082B001900091009836
S315000001B00199024A885002B07047C046D01200002A
S315000001C081B0009000980121C902594A425001B0FD
S315000001D07047C04681B01D200090009880000949F4
S315000001E08122425001B0704782B001200190072061
S315000001F0009000988021084301998900014A88509F
S3150000020002B070470480424081B000900098B64921
S31500000210B64A425001B07047064801680122914330
S315000002200160704703480168012212029143016090
S315000002307047C04608010B4081B068460021017036
S3150000024000780249086001B07047C04608030B40B9
S3150000025080B582B001A80021017001780F480F22F5
S31500000260FFF77EFF02B080BD80B582B001A80021F5
S315000002700170017802480322FFF772FF02B080BDC9
S3150000028000010B4080B582B001A800210170017801
S3150000029002483022FFF764FF02B080BD04010B4024
S315000002A081B00090009802490122425001B0704787
S315000002B00811000084B0E648039002A800210170EE
S315000002C0012101910399064A891800910199009A22
S315000002D00078800013580B43135004B07047C04693
S315000002E05810000081B0D34800900098B349425896
S315000002F001235B021A43425001B0704782B0CD48D9
S31500000300019011200001009000980199024A8B5833
S3150000031003438B5002B070472810000081B0009054
S3150000032000980121C902024A425001B07047C046F6
S315000003300100002681B0D24800900098A549405897
S3150000034001B0704781B00090009881214901405862
S31500000350C0B201B070470000B0B54A68164BC25033
S315000003603122D201835803241C438C239C4384509E
S31500000370124A80180A7853B2DAB2022A07D89B00CA
S315000003800FA4E358C46A504D25401D43C562D31ED1
S31500000390032B04D30222032B04D29D2303E0222243
S315000003A0032BFAD3BD23097A19400368494C1C4034
S315000003B0091911430160B0BD0818000004180000B7
S315000003C0010002000101020002010200F0B5AD4A7F
S315000003D082183B4BC31808794E793A4D3A4C002E99
S315000003E023D0202804D00526F601002803D003E0F8
S315000003F0364E002800D18826576F2F40374357675F
S31500000400976F2F4037439767566B26405663966B18
S31500000410264096630026566596658F26F6435F68E6
S3150000042037405F609F6837409F608E790968202853
S315000004300BD0002819D1491E5160D76E2F40882154
S315000004400F43D7661746703719E0491E5160D16EC3
S3150000045029401E4F3943D166116F29403943116730
S31500000460012149071A4D174609E049085160D76E20
S315000004702F400521C9010F43D766174670373C68E0
S315000004802C400C433C60D16A0F4C2140D162116B69
S31500000490214011630021D16411658F21C943D46FB6
S315000004A00C40D4671C680C401C600643BD203040DD
S315000004B01168084B0B40C018801C1060F0BDC04688
S315000004C08418000024493E008888FDFF01040000CE
S315000004D0FFFFFFCF4000FFCF81B000900098024998
S315000004E0024A425001B0704704080000030000B100
S315000004F082B0D04801900120009000980199112205
S315000005001202885002B0704710B507239B041940A9
S3150000051092008018024A84589C436118815010BD8D
S315000005203018000010B5029CA400001911431943AD
S31500000530014A815010BDC046501800009200801834
S31500000540014A81507047C0461018000010B50122BC
S31500000550120383180C789C604B7883508978014A83
S31500000560815010BD0C11000010B584B0EB4803900B
S3150000057002A90020088001AA10806B461880039803
S31500000580404C00190988128811431A881143024AFF
S31500000590FFF7E6FD04B010BD80FF000080B582B015
S315000005A0D24801906946102008700198034A8018C5
S315000005B009781F22FFF7D4FD02B080BDB0180000F5
S315000005C082B0D6490191009000980199014A88505D
S315000005D002B070470818000084B0D048039002A803
S315000005E00021017001A901220A70039A054BD21855
S315000005F0009209780F221140009A0078800011506D
S3150000060004B070474404000084B0B848039002A8C0
S315000006100021017001A901220A70039B92029A1817
S31500000620009209780F221140009A0078800011503C
S3150000063004B070470000864081B0B848009000982A
S315000006401049425801231A43425001B07047C04630
S315000006500000094081B0009000980A4942580123E1
S315000006601A43425001B0704781B0E94800900098A3
S315000006700449425801239A43425001B07047C0468C
S31500000680000009400418000080B582B00A200190DD
S31500000690FFE70198411E0191002803D0FFE700F013
S315000006A003F8F6E702B080BD80B582B07D20C000B9
S315000006B00190FFE70198411E0191002804D0FFE751
S315000006C05020FFF748FDF5E702B080BD80B582B047
S315000006D0FFF730FE00900098002807D0FFE700984B
S315000006E0411C6048FFF718FD019002E000200190D0
S315000006F0FFE7019802B080BD10B50B49C54C2046F6
S31500000700FFF724FF09492046FFF726FEFFF7F6FD0F
S3150000071000F01EF92046FFF7C3FDFFF73FFFFFF786
S31500000720E1FDFFF771FF10BD4C0A0000400A000012
S3150000073080B5FFF759FD3D480221FFF735FDFFF76C
S3150000074049FDFFF721FD012041033948FFF72CFD44
S3150000075080BDC046B0B582B01349AD4C2046FFF708
S31500000760F5FE12492046FFF731FEFFF7FDFE002594
S315000007700095204629462A462B46FFF7D3FE2046FB
S3150000078029462A46FFF7C0FEC82120462A46FFF71B
S31500000790D5FE2046FFF784FDFFF78CFDFFF71CFF13
S315000007A0FFF7A6FE02B0B0BD4F0A0000540A0000D3
S315000007B080B5FFF741FDFFF757FDFFF72DFDFFF76A
S315000007C031FDFFF75FFDFFF743FD80BD80B500F00B
S315000007D009F8FFF7ADFFFFF7EBFFFFF7BBFFFFF7EA
S315000007E08BFF80BDF0B581B0104C2046FFF70CFDA5
S315000007F00F4D2846FFF708FD854E3046FFF76CFE85
S31500000800844F3846FFF768FE2046FFF7D9FC284696
S31500000810FFF7D6FC3046FFF781FD3846FFF77EFD31
S315000008201020FFF798FC01B0F0BDC04600000A405A
S3150000083000200A400000094080B582B07D20C0003B
S315000008400190019800280AD0FFE701990548FFF7B3
S3150000085063FC401E00900098FFF7B2FEFFE702B06F
S3150000086080BDC04680841E0080B582B006200190FF
S315000008700198204908601E480021016007480121AF
S315000008800170FFF7D9FE02B080BDC04680B50348AF
S3150000089000210170FFF7E8FE80BDC0460000202061
S315000008A080B510480078104908705A48FFF74AFD8D
S315000008B0052814D1FFE70E480168491C01600D4860
S315000008C0006800280AD0FFE7094800680949096856
S315000008D0884203D3FFE7FFF7D9FFFFE700E0FFE712
S315000008E080BDC0460A002020080020200000864067
S315000008F00C0020201000202080B582B04448FFF76D
S3150000090021FD01900198064908700198012801D13E
S31500000910FFE700E0FFE702B080BDC04600000940E7
S315000009200900202081B0694608700020085600287A
S3150000093009D4FFE7684600781F210840012181405D
S3150000094002480160FFE701B07047C04600E100E0E1
S3150000095070B582B001A812210170002100914056A5
S31500000960002816D4FFE7002301ACE2560320C0435B
S31500000970024017495258E3569C07E40EFF25A5404E
S31500000980AA43009DAD01EDB2A5402A4303405A504B
S315000009901AE001AC23780F200340083B0321C9432A
S315000009A00B400A4A9B5800256457A507ED0EFF2603
S315000009B0AE40B343009EB601F6B2AE4033430440A8
S315000009C0083C0C40A350FFE702B070BD1CED00E0F0
S315000009D000E400E080B582B000200190FFF7F6FE4B
S315000009E0FFF752FE0220FFF79DFF1220FFF79AFF46
S315000009F00748FFF72FFE0748FFF72CFEFFF734FFE7
S31500000A00FFF71AFFFFF762FE0090FFE7FEE7C0461A
S31500000A10000009400000864002E008C8121F08C115
S31500000A20002AFAD17047000070470000000000005D
S31500000A30002001E001C1121F002AFBD1704700000F
S31500000A400000000000000000000000000800000890
S31500000A50070100009001000020010000800A00004C
S31500000A600000202008000000180A0000880A000084
S31500000A700800202010010000300A000000000000DD
S30D00000A80010000000000000067
S705000000C139
